:1009EE00C0F9A4B0999282F88090407924301912FF
:0409FE00027800106B
:080A130002110000020F0000B7
:1009AE0074EE2FF58274093EF583E493F5807F058E
:0209BE007E00B9
:0909C000D3EF9400EE9400400D09
:0609C900750EF4D50EFDD1
:0809CF00EF1F70ED1E80EA220B
:10080000E510643C450F700D0512E51270020511EC
:10081000E4F50FF510E512643C45117004F511F58F
:1008200012AE11AF127C007D0A1209238E0A8F0BC3
:10083000AE11AF127C007D0A1209238C0C8D0DAE17
:100840000FAF107C007D0A120923AB07AA06AE0F7A
:10085000AF107C007D0A12092375A07FAE04AF059E
:100860001209AE75A0BFAE02AF031209AE75A0DFCC
:1008700074F8250DF5827409350C1209B675A0EFD0
:1008800074EE250BF5827409350AF583E493F5803F
:070890007F057E000209C094
:1009D7008E088F09E5091509AE08700215084E60E3
:0709E7000512080080EE225A
:100A02007F507E001209D70510E51070F3050F80A4
:010A1200EFF4
:030000000208975C
:0C089700787FE4F6D8FD7581120208DEBF
:10092300C2D5EC30E709B2D5E4C39DFDE49CFCEEEF
:1009330030E715B2D5E4C39FFFE49EFE120959C305
:10094300E49DFDE49CFC800312095930D507C3E400
:060953009FFFE49EFE225E
:1008A300020A02E493A3F8E493A34003F68001F25F
:1008B30008DFF48029E493A3F85407240CC8C33356
:1008C300C4540F4420C8834004F456800146F6DF25
:1008D300E4800B0102040810204080900A13E47E98
:1008E300019360BCA3FF543F30E509541FFEE4931A
:1008F300A360010ECF54C025E060A840B8E493A3E1
:10090300FAE493A3F8E493A3C8C582C8CAC583CA0B
:10091300F0A3C8C582C8CAC583CADFE9DEE780BEC3
:010A1B0000DA
:10095900BC000BBE0029EF8DF084FFADF022E4CC82
:10096900F875F008EF2FFFEE33FEEC33FCEE9DEC4B
:10097900984005FCEE9DFE0FD5F0E9E4CEFD22ED91
:10098900F8F5F0EE8420D21CFEADF075F008EF2FDB
:10099900FFED33FD4007985006D5F0F222C398FDCC
:0509A9000FD5F0EA2269
:00000001FF
