:10090200C0F9A430999282F880908883C6A1868E1D
:06091200010D29010C1F7C
:0708E40093F5807F057E0003
:0908EB00D3EF9400EE9400400DDF
:0608F400750EF4D50EFDA7
:0808FA00EF1F70ED1E80EA22E1
:10088C00E50D75F00A8485F008E50D75F06484E5D6
:10089C00F075F00A84F509E50C75F00A8485F00A08
:1008AC00E50C75F06484E5F075F00A84F50B75A021
:1008BC007FE5089009021208E475A0BFE50912084B
:1008CC00E475A0DFE50A1208E475A0EFE50B93F5DB
:0808DC00807F057E000208EB9D
:0509190012088C80FBB8
:03000000020800F3
:0C080000787FE4F6D8FD75810E020847F1
:10080C00020919E493A3F8E493A34003F68001F2E0
:10081C0008DFF48029E493A3F85407240CC8C333ED
:10082C00C4540F4420C8834004F456800146F6DFBC
:10083C00E4800B0102040810204080900912E47E31
:10084C00019360BCA3FF543F30E509541FFEE493B1
:10085C00A360010ECF54C025E060A840B8E493A378
:10086C00FAE493A3F8E493A3C8C582C8CAC583CAA3
:10087C00F0A3C8C582C8CAC583CADFE9DEE780BE5B
:0109180000DE
:00000001FF
