:03000000020800F3
:0C080000787FE4F6D8FD758134020847CB
:1008DB00010900010800011E00013401141F00C0B2
:1008EB0000F900A400B000990092008200F800808B
:1008FB000090140A00400079002400300019001207
:08090B0000020078000000105A
:10094000758901758CEC758A78D2AFD2A9D28C20CA
:08095000B30512088C80FB22A4
:03000B00020914D3
:10091400C0E0C0D0758CEC758A78C28DD28C050984
:10092400E509B4C80F7509000508E508B43C057568
:0C0934000800051E753401D0D0D0E03260
:10088C00E5095403F53314601714601F14602D240C
:10089C0003703B75A07FE50875F00A84E5F08025B0
:1008AC0075A0BFE50875F00A84801A75A0DFE51EF7
:1008BC0075F00A84E5F025E0240A800D75A0EFE5BB
:0F08CC001E75F00A8425E0241FF808E6F5802247
:10080C00020940E493A3F8E493A34003F68001F2B9
:10081C0008DFF48029E493A3F85407240CC8C333ED
:10082C00C4540F4420C8834004F456800146F6DFBC
:10083C00E4800B01020408102040809008DBE47E69
:10084C00019360BCA3FF543F30E509541FFEE493B1
:10085C00A360010ECF54C025E060A840B8E493A378
:10086C00FAE493A3F8E493A3C8C582C8CAC583CAA3
:10087C00F0A3C8C582C8CAC583CADFE9DEE780BE5B
:0109130000E3
:00000001FF
