:1008000001010102010103010104010105010106C9
:100810000101070101F2F3F5F5F6F7F8F9F9FAFA33
:10082000FBFBFCFCFCFDFDFDFDFEFEFEFEFEFEFEF8
:10083000FF42C117B6D0D1B621E18CD868E95B8FF1
:0D084000EE446BB4F42D4777A2B6DAFA1639
:02084D008F0A10
:10084F00E4F50BE50BC3950A5039E4F50FF50EF5FA
:10085F000DF50CE47F407E1FFDFCAB0FAA0EA90D1A
:10086F00A80CC31208DC5017E50F2401F50FE4356F
:10087F000EF50EE4350DF50DE4350CF50C80D405B1
:05088F000B80C0C28CCB
:010894002241
:0D08ED0085118C85128AD28CAF1002084D47
:10089500758901D2AFD2A9E4F509E509C39464507D
:1008A500F6E5099008019375F007A4FFE50990089E
:1008B50000932F14F50890081593F511E508900895
:1008C5003193F512E50990080293F5107403250993
:0708D500F5091208ED80C3D4
:03000B000208FAEE
:0D08FA00C28CB29185118C85128AD28C328D
:03000000020907EB
:0C090700787FE4F6D8FD75811202089597
:1008DC00EB9FF5F0EA9E42F0E99D42F0E89C45F072
:0108EC0022E9
:00000001FF
