:03000000020800F3
:0C080000787FE4F6D8FD75813B020847C4
:0A0A6A0001180005295253323332FF
:100A1A00120991F5379000011209AAF538900002DF
:100A2A001209AAF5399000031209AAF53A900004AE
:0C0A3A001209AAF53B75220185379922AC
:100A4600D3EF9400EE9400400DE4FD0DBD1BFCEFCA
:060A56001F70ED1E80EA96
:010A5C002277
:0C0A5D00150A150A150A150A150A150AD3
:010A6900226A
:1009D700E4FF75210220A007AE210521EE70F61273
:1009E7000A5D120A5D120A5DE4F52630A00375263A
:1009F7000175210230A007AE210521EE70F6E52131
:100A07006401600EE53125E0F531E52642310FBF7F
:020A170008C015
:010A190022BA
:10088C00C2A07FB47E00120A46D2A0120A5D120AE0
:10089C005D120A5D120A5DD2A020A05675210220BD
:1008AC00A007AF210521EF70F675210230A007AF2C
:1008BC00210521EF70F61209D785312E1209D78543
:1008CC00312F1209D785311B1209D785311C12091A
:1008DC00D7853125D2A0E51B251C252E252FF526E5
:1008EC00B5250F852E27852F28851B19851C1A8564
:0308FC002523228F
:10094A00E4F508F509758920758DFD758BFDD28E44
:10095A00759850D2ACD2AFC299C298FB7A00792965
:10096A00120A1A12088C85272985282A85192B85A7
:10097A001A2C85232D7B007A007929120A1A7F20E6
:07098A007E4E120A4680DCDC
:030023000208FFD1
:0708FF00C0E0C0D075D0106D
:10090600309912C299E5226405600A74372522F8E7
:10091600E6F5990522309827AF9974322518F8A67E
:10092600170518C298E518B40515751800853229FB
:0F09360085332A85342B85352C85362D75800029
:05094500D0D0D0E0322B
:10080C0002094AE493A3F8E493A34003F68001F2AF
:10081C0008DFF48029E493A3F85407240CC8C333ED
:10082C00C4540F4420C8834004F456800146F6DFBC
:10083C00E4800B0102040810204080900A6AE47ED8
:10084C00019360BCA3FF543F30E509541FFEE493B1
:10085C00A360010ECF54C025E060A840B8E493A378
:10086C00FAE493A3F8E493A3C8C582C8CAC583CAA3
:10087C00F0A3C8C582C8CAC583CADFE9DEE780BE5B
:010A74000081
:10099100BB010689828A83E0225002E722BBFE0264
:0909A100E32289828A83E4932297
:1009AA00BB010CE58229F582E5833AF583E0225002
:1009BA0006E92582F8E622BBFE06E92582F8E2224C
:0D09CA00E58229F582E5833AF583E4932266
:00000001FF
