:1009F300C0F9A4B0999282F88090407924301912FA
:040A03000278001065
:040A180002130000C5
:0A09BB00F583E493F5807F057E00CC
:0909C500D3EF9400EE9400400D04
:0609CE007512F4D512FDC4
:0809D400EF1F70ED1E80EA2206
:10080000AE13AF147C007D3C120930AB05AA04AED8
:1008100013AF147C007D3C1209308F828E837C00E4
:100820007D0AAF03AE021209858C108D11AE02AFA6
:10083000037C007D0A1209858E0E8F0F7C007D0AD5
:10084000AF82AE831209858C0C8D0DAE83AF827C96
:10085000007D0A1209858E0A8F0B75A0EF74F325AF
:100860000BF5827409350A1209BB75A0DF74FD25EA
:100870000DF5827409350C1209BB75A0BF74F32500
:100880000FF5827409350E1209BB75A07F74F3252C
:1008900011F58274093510F583E493F5807F057EA8
:0408A000000209C584
:1009DC008E088F09E5091509AE08700215084E60DE
:0709EC000512080080EE2255
:100A07007F647E001209DC0514E51470F30513807A
:010A1700EFEF
:030000000208A44F
:0C08A400787FE4F6D8FD7581140208EBA3
:10093000BC000BBE0029EF8DF084FFADF022E4CCAB
:10094000F875F008EF2FFFEE33FEEC33FCEE9DEC74
:10095000984005FCEE9DFE0FD5F0E9E4CEFD22EDBA
:10096000F8F5F0EE8420D21CFEADF075F008EF2F04
:10097000FFED33FD4007985006D5F0F222C398FDF5
:050980000FD5F0EA2292
:10098500C2D5EC30E709B2D5E4C39DFDE49CFCEE8D
:1009950030E715B2D5E4C39FFFE49EFE120930C3CC
:1009A500E49DFDE49CFC800312093030D507C3E4C7
:0609B5009FFFE49EFE22FC
:1008B000020A07E493A3F8E493A34003F68001F24D
:1008C00008DFF48029E493A3F85407240CC8C33349
:1008D000C4540F4420C8834004F456800146F6DF18
:1008E000E4800B0102040810204080900A18E47E86
:1008F000019360BCA3FF543F30E509541FFEE4930D
:10090000A360010ECF54C025E060A840B8E493A3D3
:10091000FAE493A3F8E493A3C8C582C8CAC583CAFE
:10092000F0A3C8C582C8CAC583CADFE9DEE780BEB6
:010A1C0000D9
:00000001FF
