:03000000020800F3
:0C080000787FE4F6D8FD758134020847CB
:1008F400010900010800011E00013401141F00C099
:1009040000F900A400B000990092008200F8008071
:100914000090140A004000790024003000190012ED
:08092400000200780000001041
:10088C00758901758CEC758A78D2AFD2A9D28CE5BA
:10089C00095403F5331460171460231460362403D1
:1008AC0070ED75A07FE50875F00A84E5F080097598
:1008BC00A0BFE50875F00A8425E0241F800F75A001
:1008CC00DFE51E75F00A84E5F025E0240AF808E659
:1008DC00F58080BB75A0EFE51E75F00A8425E02439
:0808EC001FF808E6F58080A763
:03000B0002092DBA
:10092D00C0E0C0D0758CEC758A78C28DD28C05096B
:10093D00E509B4C80F7509000508E508B43C05754F
:0C094D000800051E753401D0D0D0E03247
:10080C0002088CE493A3F8E493A34003F68001F26E
:10081C0008DFF48029E493A3F85407240CC8C333ED
:10082C00C4540F4420C8834004F456800146F6DFBC
:10083C00E4800B01020408102040809008F4E47E50
:10084C00019360BCA3FF543F30E509541FFEE493B1
:10085C00A360010ECF54C025E060A840B8E493A378
:10086C00FAE493A3F8E493A3C8C582C8CAC583CAA3
:10087C00F0A3C8C582C8CAC583CADFE9DEE780BE5B
:01092C0000CA
:00000001FF
